:020000020000FC
:1000000008E00EBF0FEF0DBF08EF04B910EE1AB9EC
:10001000B5E0B5BD03B121E031E041E02023069514
:1000200030230695402351E0522761E0632771E0B9
:100030007427072E03220522142E162215220128CA
:10004000242E2622322E2328442E43224222259A71
:1000500080E40E943A00259880E40E943A00102D26
:10006000110F1229110F1429110F110F110F110F58
:10007000110F1BB905B312E00123E1F315BB8A95FB
:06008000C9F70895FFCF4F
:00000001FF
